{
  "contractName": "SellNFT",
  "abi": [
    {
      "inputs": [
        {
          "internalType": "address",
          "name": "_nftAddress",
          "type": "address"
        }
      ],
      "stateMutability": "nonpayable",
      "type": "constructor"
    },
    {
      "anonymous": false,
      "inputs": [
        {
          "indexed": true,
          "internalType": "address",
          "name": "previousOwner",
          "type": "address"
        },
        {
          "indexed": true,
          "internalType": "address",
          "name": "newOwner",
          "type": "address"
        }
      ],
      "name": "OwnershipTransferred",
      "type": "event"
    },
    {
      "anonymous": false,
      "inputs": [
        {
          "indexed": false,
          "internalType": "address",
          "name": "account",
          "type": "address"
        }
      ],
      "name": "Paused",
      "type": "event"
    },
    {
      "anonymous": false,
      "inputs": [
        {
          "indexed": true,
          "internalType": "address",
          "name": "payer",
          "type": "address"
        },
        {
          "indexed": false,
          "internalType": "uint256",
          "name": "tokenId",
          "type": "uint256"
        },
        {
          "indexed": false,
          "internalType": "uint256",
          "name": "amount",
          "type": "uint256"
        },
        {
          "indexed": false,
          "internalType": "uint256",
          "name": "balance",
          "type": "uint256"
        }
      ],
      "name": "Received",
      "type": "event"
    },
    {
      "anonymous": false,
      "inputs": [
        {
          "indexed": true,
          "internalType": "address",
          "name": "payee",
          "type": "address"
        },
        {
          "indexed": false,
          "internalType": "uint256",
          "name": "amount",
          "type": "uint256"
        },
        {
          "indexed": false,
          "internalType": "uint256",
          "name": "balance",
          "type": "uint256"
        }
      ],
      "name": "Sent",
      "type": "event"
    },
    {
      "anonymous": false,
      "inputs": [
        {
          "indexed": false,
          "internalType": "address",
          "name": "account",
          "type": "address"
        }
      ],
      "name": "Unpaused",
      "type": "event"
    },
    {
      "inputs": [],
      "name": "nftAddress",
      "outputs": [
        {
          "internalType": "contract ERC721",
          "name": "",
          "type": "address"
        }
      ],
      "stateMutability": "view",
      "type": "function",
      "constant": true
    },
    {
      "inputs": [],
      "name": "owner",
      "outputs": [
        {
          "internalType": "address",
          "name": "",
          "type": "address"
        }
      ],
      "stateMutability": "view",
      "type": "function",
      "constant": true
    },
    {
      "inputs": [],
      "name": "paused",
      "outputs": [
        {
          "internalType": "bool",
          "name": "",
          "type": "bool"
        }
      ],
      "stateMutability": "view",
      "type": "function",
      "constant": true
    },
    {
      "inputs": [],
      "name": "renounceOwnership",
      "outputs": [],
      "stateMutability": "nonpayable",
      "type": "function"
    },
    {
      "inputs": [
        {
          "internalType": "address",
          "name": "newOwner",
          "type": "address"
        }
      ],
      "name": "transferOwnership",
      "outputs": [],
      "stateMutability": "nonpayable",
      "type": "function"
    },
    {
      "inputs": [
        {
          "internalType": "uint256",
          "name": "_amount",
          "type": "uint256"
        },
        {
          "internalType": "uint256",
          "name": "_tokenId",
          "type": "uint256"
        },
        {
          "internalType": "uint256",
          "name": "_deadline",
          "type": "uint256"
        },
        {
          "internalType": "uint8",
          "name": "v",
          "type": "uint8"
        },
        {
          "internalType": "bytes32",
          "name": "r",
          "type": "bytes32"
        },
        {
          "internalType": "bytes32",
          "name": "s",
          "type": "bytes32"
        }
      ],
      "name": "sellNft",
      "outputs": [],
      "stateMutability": "payable",
      "type": "function",
      "payable": true
    }
  ],
  "bytecode": "0x60806040523480156200001157600080fd5b506040516200144938038062001449833981810160405281019062000037919062000263565b620000576200004b6200012d60201b60201c565b6200013560201b60201c565b60008060146101000a81548160ff021916908315150217905550600073ffffffffffffffffffffffffffffffffffffffff168173ffffffffffffffffffffffffffffffffffffffff1614158015620000db57503073ffffffffffffffffffffffffffffffffffffffff168173ffffffffffffffffffffffffffffffffffffffff1614155b620000e557600080fd5b80600160006101000a81548173ffffffffffffffffffffffffffffffffffffffff021916908373ffffffffffffffffffffffffffffffffffffffff1602179055505062000295565b600033905090565b60008060009054906101000a900473ffffffffffffffffffffffffffffffffffffffff169050816000806101000a81548173ffffffffffffffffffffffffffffffffffffffff021916908373ffffffffffffffffffffffffffffffffffffffff1602179055508173ffffffffffffffffffffffffffffffffffffffff168173ffffffffffffffffffffffffffffffffffffffff167f8be0079c531659141344cd1fd0a4f28419497f9722a3daafe3b4186f6b6457e060405160405180910390a35050565b600080fd5b600073ffffffffffffffffffffffffffffffffffffffff82169050919050565b60006200022b82620001fe565b9050919050565b6200023d816200021e565b81146200024957600080fd5b50565b6000815190506200025d8162000232565b92915050565b6000602082840312156200027c576200027b620001f9565b5b60006200028c848285016200024c565b91505092915050565b6111a480620002a56000396000f3fe6080604052600436106100555760003560e01c80635bf8633a1461005a5780635c975abb14610085578063715018a6146100b0578063877fd0da146100c75780638da5cb5b146100e3578063f2fde38b1461010e575b600080fd5b34801561006657600080fd5b5061006f610137565b60405161007c9190610aaf565b60405180910390f35b34801561009157600080fd5b5061009a61015d565b6040516100a79190610ae5565b60405180910390f35b3480156100bc57600080fd5b506100c5610173565b005b6100e160048036038101906100dc9190610baa565b6101fb565b005b3480156100ef57600080fd5b506100f86105c4565b6040516101059190610c58565b60405180910390f35b34801561011a57600080fd5b5061013560048036038101906101309190610c9f565b6105ed565b005b600160009054906101000a900473ffffffffffffffffffffffffffffffffffffffff1681565b60008060149054906101000a900460ff16905090565b61017b6106e4565b73ffffffffffffffffffffffffffffffffffffffff166101996105c4565b73ffffffffffffffffffffffffffffffffffffffff16146101ef576040517f08c379a00000000000000000000000000000000000000000000000000000000081526004016101e690610d29565b60405180910390fd5b6101f960006106ec565b565b83421061023d576040517f08c379a000000000000000000000000000000000000000000000000000000000815260040161023490610d95565b60405180910390fd5b6000339050600046905060007f3cb138da6d2d7fa0e45d63ba80d5c0902dc0f5c3cc8ce33bcfe31dc017a3a4126040518060400160405280600781526020017f5365745465737400000000000000000000000000000000000000000000000000815250805190602001206040518060400160405280600181526020017f31000000000000000000000000000000000000000000000000000000000000008152508051906020012084306040516020016102fa959493929190610dd3565b60405160208183030381529060405280519060200120905060007f587257ac260ef142e9d3fda925cddaa40b1a30da907fe3fb4e23697dc91deeae848b8b8b60405160200161034d959493929190610e26565b6040516020818303038152906040528051906020012090506000828260405160200161037a929190610ef1565b60405160208183030381529060405280519060200120905060006001828a8a8a604051600081526020016040526040516103b79493929190610f37565b6020604051602081039080840390855afa1580156103d9573d6000803e3d6000fd5b5050506020604051035190503073ffffffffffffffffffffffffffffffffffffffff16638da5cb5b6040518163ffffffff1660e01b8152600401602060405180830381865afa158015610430573d6000803e3d6000fd5b505050506040513d601f19601f820116820180604052508101906104549190610f91565b73ffffffffffffffffffffffffffffffffffffffff168173ffffffffffffffffffffffffffffffffffffffff16146104c1576040517f08c379a00000000000000000000000000000000000000000000000000000000081526004016104b89061100a565b60405180910390fd5b600073ffffffffffffffffffffffffffffffffffffffff168173ffffffffffffffffffffffffffffffffffffffff16036104fa57600080fd5b6000600160009054906101000a900473ffffffffffffffffffffffffffffffffffffffff1673ffffffffffffffffffffffffffffffffffffffff16636352211e8d6040518263ffffffff1660e01b8152600401610557919061102a565b602060405180830381865afa158015610574573d6000803e3d6000fd5b505050506040513d601f19601f820116820180604052508101906105989190610f91565b905060003390506105aa82828f6107b0565b6105b4828f61090a565b5050505050505050505050505050565b60008060009054906101000a900473ffffffffffffffffffffffffffffffffffffffff16905090565b6105f56106e4565b73ffffffffffffffffffffffffffffffffffffffff166106136105c4565b73ffffffffffffffffffffffffffffffffffffffff1614610669576040517f08c379a000000000000000000000000000000000000000000000000000000000815260040161066090610d29565b60405180910390fd5b600073ffffffffffffffffffffffffffffffffffffffff168173ffffffffffffffffffffffffffffffffffffffff16036106d8576040517f08c379a00000000000000000000000000000000000000000000000000000000081526004016106cf906110b7565b60405180910390fd5b6106e1816106ec565b50565b600033905090565b60008060009054906101000a900473ffffffffffffffffffffffffffffffffffffffff169050816000806101000a81548173ffffffffffffffffffffffffffffffffffffffff021916908373ffffffffffffffffffffffffffffffffffffffff1602179055508173ffffffffffffffffffffffffffffffffffffffff168173ffffffffffffffffffffffffffffffffffffffff167f8be0079c531659141344cd1fd0a4f28419497f9722a3daafe3b4186f6b6457e060405160405180910390a35050565b600073ffffffffffffffffffffffffffffffffffffffff163373ffffffffffffffffffffffffffffffffffffffff161415801561081957503073ffffffffffffffffffffffffffffffffffffffff163373ffffffffffffffffffffffffffffffffffffffff1614155b61082257600080fd5b600160009054906101000a900473ffffffffffffffffffffffffffffffffffffffff1673ffffffffffffffffffffffffffffffffffffffff166342842e0e8433846040518463ffffffff1660e01b8152600401610881939291906110d7565b600060405180830381600087803b15801561089b57600080fd5b505af11580156108af573d6000803e3d6000fd5b505050508173ffffffffffffffffffffffffffffffffffffffff167f02d08db2db312fc60b41a046c46a7772a6c2dcdca0c32a9d3423c6dcbde693e98234476040516108fd9392919061110e565b60405180910390a2505050565b600073ffffffffffffffffffffffffffffffffffffffff168273ffffffffffffffffffffffffffffffffffffffff161415801561097357503073ffffffffffffffffffffffffffffffffffffffff168273ffffffffffffffffffffffffffffffffffffffff1614155b61097c57600080fd5b60008111801561098c5750478111155b61099557600080fd5b8173ffffffffffffffffffffffffffffffffffffffff166108fc829081150290604051600060405180830381858888f193505050501580156109db573d6000803e3d6000fd5b508173ffffffffffffffffffffffffffffffffffffffff167f6356739d963da01dc3533acba7203430fcc14f2175d48a8dd0973d7db49c785e8247604051610a24929190611145565b60405180910390a25050565b600073ffffffffffffffffffffffffffffffffffffffff82169050919050565b6000819050919050565b6000610a75610a70610a6b84610a30565b610a50565b610a30565b9050919050565b6000610a8782610a5a565b9050919050565b6000610a9982610a7c565b9050919050565b610aa981610a8e565b82525050565b6000602082019050610ac46000830184610aa0565b92915050565b60008115159050919050565b610adf81610aca565b82525050565b6000602082019050610afa6000830184610ad6565b92915050565b600080fd5b6000819050919050565b610b1881610b05565b8114610b2357600080fd5b50565b600081359050610b3581610b0f565b92915050565b600060ff82169050919050565b610b5181610b3b565b8114610b5c57600080fd5b50565b600081359050610b6e81610b48565b92915050565b6000819050919050565b610b8781610b74565b8114610b9257600080fd5b50565b600081359050610ba481610b7e565b92915050565b60008060008060008060c08789031215610bc757610bc6610b00565b5b6000610bd589828a01610b26565b9650506020610be689828a01610b26565b9550506040610bf789828a01610b26565b9450506060610c0889828a01610b5f565b9350506080610c1989828a01610b95565b92505060a0610c2a89828a01610b95565b9150509295509295509295565b6000610c4282610a30565b9050919050565b610c5281610c37565b82525050565b6000602082019050610c6d6000830184610c49565b92915050565b610c7c81610c37565b8114610c8757600080fd5b50565b600081359050610c9981610c73565b92915050565b600060208284031215610cb557610cb4610b00565b5b6000610cc384828501610c8a565b91505092915050565b600082825260208201905092915050565b7f4f776e61626c653a2063616c6c6572206973206e6f7420746865206f776e6572600082015250565b6000610d13602083610ccc565b9150610d1e82610cdd565b602082019050919050565b60006020820190508181036000830152610d4281610d06565b9050919050565b7f5369676e6564205472616e73616374696f6e2045787069726564000000000000600082015250565b6000610d7f601a83610ccc565b9150610d8a82610d49565b602082019050919050565b60006020820190508181036000830152610dae81610d72565b9050919050565b610dbe81610b74565b82525050565b610dcd81610b05565b82525050565b600060a082019050610de86000830188610db5565b610df56020830187610db5565b610e026040830186610db5565b610e0f6060830185610dc4565b610e1c6080830184610c49565b9695505050505050565b600060a082019050610e3b6000830188610db5565b610e486020830187610c49565b610e556040830186610dc4565b610e626060830185610dc4565b610e6f6080830184610dc4565b9695505050505050565b600081905092915050565b7f1901000000000000000000000000000000000000000000000000000000000000600082015250565b6000610eba600283610e79565b9150610ec582610e84565b600282019050919050565b6000819050919050565b610eeb610ee682610b74565b610ed0565b82525050565b6000610efc82610ead565b9150610f088285610eda565b602082019150610f188284610eda565b6020820191508190509392505050565b610f3181610b3b565b82525050565b6000608082019050610f4c6000830187610db5565b610f596020830186610f28565b610f666040830185610db5565b610f736060830184610db5565b95945050505050565b600081519050610f8b81610c73565b92915050565b600060208284031215610fa757610fa6610b00565b5b6000610fb584828501610f7c565b91505092915050565b7f496e76616c6964205369676e6174757265000000000000000000000000000000600082015250565b6000610ff4601183610ccc565b9150610fff82610fbe565b602082019050919050565b6000602082019050818103600083015261102381610fe7565b9050919050565b600060208201905061103f6000830184610dc4565b92915050565b7f4f776e61626c653a206e6577206f776e657220697320746865207a65726f206160008201527f6464726573730000000000000000000000000000000000000000000000000000602082015250565b60006110a1602683610ccc565b91506110ac82611045565b604082019050919050565b600060208201905081810360008301526110d081611094565b9050919050565b60006060820190506110ec6000830186610c49565b6110f96020830185610c49565b6111066040830184610dc4565b949350505050565b60006060820190506111236000830186610dc4565b6111306020830185610dc4565b61113d6040830184610dc4565b949350505050565b600060408201905061115a6000830185610dc4565b6111676020830184610dc4565b939250505056fea2646970667358221220c6ac7958d0a06fa7ac0a9a114e6d0cb786745aec0679b7c5157cdce258942fe964736f6c634300080d0033",
  "immutableReferences": {},
  "source": "pragma solidity ^0.8.0;\r\n\r\nimport \"@openzeppelin/contracts/token/ERC721/ERC721.sol\";\r\nimport \"@openzeppelin/contracts/access/Ownable.sol\";\r\nimport \"@openzeppelin/contracts/security/Pausable.sol\";\r\n\r\ncontract SellNFT is Ownable, Pausable {\r\n    event Sent(address indexed payee, uint256 amount, uint256 balance);\r\n    event Received(\r\n        address indexed payer,\r\n        uint256 tokenId,\r\n        uint256 amount,\r\n        uint256 balance\r\n    );\r\n\r\n    ERC721 public nftAddress;\r\n\r\n    constructor(address _nftAddress) {\r\n        require(_nftAddress != address(0) && _nftAddress != address(this));\r\n        nftAddress = ERC721(_nftAddress);\r\n    }\r\n\r\n    function _sendNft(\r\n        address tokenOwner,\r\n        address sendTo,\r\n        uint256 _tokenId\r\n    ) private {\r\n        require(msg.sender != address(0) && msg.sender != address(this));\r\n        nftAddress.safeTransferFrom(tokenOwner, msg.sender, _tokenId);\r\n        emit Received(sendTo, _tokenId, msg.value, address(this).balance);\r\n    }\r\n\r\n    function _sendPayment(address _payee, uint256 _amount) private {\r\n        require(_payee != address(0) && _payee != address(this));\r\n        require(_amount > 0 && _amount <= address(this).balance);\r\n        payable(_payee).transfer(_amount);\r\n        emit Sent(_payee, _amount, address(this).balance);\r\n    }\r\n\r\n    function sellNft(\r\n        uint256 _amount,\r\n        uint256 _tokenId,\r\n        uint256 _deadline,\r\n        uint8 v,\r\n        bytes32 r,\r\n        bytes32 s\r\n    ) public payable {\r\n        require(block.timestamp < _deadline, \"Signed Transaction Expired\");\r\n        address sender = msg.sender;\r\n        uint256 chainId;\r\n        assembly {\r\n            chainId := chainid()\r\n        }\r\n\r\n        bytes32 eip712DomainHash = keccak256(\r\n            abi.encode(\r\n                keccak256(\r\n                    \"EIP712Domain(string name, string version, uint256 chainId, address verifyingContract)\"\r\n                ),\r\n                keccak256(bytes(\"SetTest\")),\r\n                keccak256(bytes(\"1\")),\r\n                chainId,\r\n                address(this)\r\n            )\r\n        );\r\n\r\n        bytes32 hashStruct = keccak256(\r\n            abi.encode(\r\n                keccak256(\r\n                    \"set(address sender, uint256 amount, uint256 tokenid, uint deadline)\"\r\n                ),\r\n                sender,\r\n                _amount,\r\n                _tokenId,\r\n                _deadline\r\n            )\r\n        );\r\n\r\n        bytes32 hash = keccak256(\r\n            abi.encodePacked(\"\\x19\\x01\", eip712DomainHash, hashStruct)\r\n        );\r\n\r\n        address signer = ecrecover(hash, v, r, s);\r\n        require(signer == this.owner(), \"Invalid Signature\");\r\n        require(signer != address(0));\r\n\r\n        address tokenOwner = nftAddress.ownerOf(_tokenId);\r\n        address sendTo = msg.sender;\r\n\r\n        _sendNft(tokenOwner, sendTo, _tokenId);\r\n        _sendPayment(tokenOwner, _amount);\r\n    }\r\n}\r\n",
  "sourcePath": "E:\\Github\\nft-market\\truffle\\contracts\\transact.sol",
  "compiler": {
    "name": "solc",
    "version": "0.8.13+commit.abaa5c0e.Emscripten.clang"
  },
  "schemaVersion": "3.4.7",
  "updatedAt": "2022-04-11T18:44:05.199Z",
  "networkType": "ethereum",
  "devdoc": {
    "kind": "dev",
    "methods": {
      "owner()": {
        "details": "Returns the address of the current owner."
      },
      "paused()": {
        "details": "Returns true if the contract is paused, and false otherwise."
      },
      "renounceOwnership()": {
        "details": "Leaves the contract without owner. It will not be possible to call `onlyOwner` functions anymore. Can only be called by the current owner. NOTE: Renouncing ownership will leave the contract without an owner, thereby removing any functionality that is only available to the owner."
      },
      "transferOwnership(address)": {
        "details": "Transfers ownership of the contract to a new account (`newOwner`). Can only be called by the current owner."
      }
    },
    "version": 1
  },
  "userdoc": {
    "kind": "user",
    "methods": {},
    "version": 1
  }
}