{
  "contractName": "SellNFT",
  "abi": [
    {
      "inputs": [
        {
          "internalType": "address",
          "name": "_nftAddress",
          "type": "address"
        }
      ],
      "stateMutability": "nonpayable",
      "type": "constructor"
    },
    {
      "anonymous": false,
      "inputs": [
        {
          "indexed": true,
          "internalType": "address",
          "name": "previousOwner",
          "type": "address"
        },
        {
          "indexed": true,
          "internalType": "address",
          "name": "newOwner",
          "type": "address"
        }
      ],
      "name": "OwnershipTransferred",
      "type": "event"
    },
    {
      "anonymous": false,
      "inputs": [
        {
          "indexed": false,
          "internalType": "address",
          "name": "account",
          "type": "address"
        }
      ],
      "name": "Paused",
      "type": "event"
    },
    {
      "anonymous": false,
      "inputs": [
        {
          "indexed": true,
          "internalType": "address",
          "name": "to",
          "type": "address"
        },
        {
          "indexed": true,
          "internalType": "address",
          "name": "from",
          "type": "address"
        },
        {
          "indexed": true,
          "internalType": "uint256",
          "name": "tokenId",
          "type": "uint256"
        },
        {
          "indexed": false,
          "internalType": "uint256",
          "name": "amount",
          "type": "uint256"
        }
      ],
      "name": "Sold",
      "type": "event"
    },
    {
      "anonymous": false,
      "inputs": [
        {
          "indexed": false,
          "internalType": "address",
          "name": "account",
          "type": "address"
        }
      ],
      "name": "Unpaused",
      "type": "event"
    },
    {
      "inputs": [],
      "name": "nftAddress",
      "outputs": [
        {
          "internalType": "contract ERC721",
          "name": "",
          "type": "address"
        }
      ],
      "stateMutability": "view",
      "type": "function",
      "constant": true
    },
    {
      "inputs": [],
      "name": "owner",
      "outputs": [
        {
          "internalType": "address",
          "name": "",
          "type": "address"
        }
      ],
      "stateMutability": "view",
      "type": "function",
      "constant": true
    },
    {
      "inputs": [],
      "name": "paused",
      "outputs": [
        {
          "internalType": "bool",
          "name": "",
          "type": "bool"
        }
      ],
      "stateMutability": "view",
      "type": "function",
      "constant": true
    },
    {
      "inputs": [],
      "name": "renounceOwnership",
      "outputs": [],
      "stateMutability": "nonpayable",
      "type": "function"
    },
    {
      "inputs": [
        {
          "internalType": "address",
          "name": "newOwner",
          "type": "address"
        }
      ],
      "name": "transferOwnership",
      "outputs": [],
      "stateMutability": "nonpayable",
      "type": "function"
    },
    {
      "inputs": [
        {
          "internalType": "uint256",
          "name": "amount",
          "type": "uint256"
        }
      ],
      "name": "deductFees",
      "outputs": [
        {
          "internalType": "uint256",
          "name": "amount_after_fees",
          "type": "uint256"
        }
      ],
      "stateMutability": "pure",
      "type": "function",
      "constant": true
    },
    {
      "inputs": [
        {
          "internalType": "uint256",
          "name": "_amount",
          "type": "uint256"
        },
        {
          "internalType": "uint256",
          "name": "_tokenId",
          "type": "uint256"
        },
        {
          "internalType": "uint256",
          "name": "_deadline",
          "type": "uint256"
        },
        {
          "internalType": "uint8",
          "name": "v",
          "type": "uint8"
        },
        {
          "internalType": "bytes32",
          "name": "r",
          "type": "bytes32"
        },
        {
          "internalType": "bytes32",
          "name": "s",
          "type": "bytes32"
        }
      ],
      "name": "sellNft",
      "outputs": [],
      "stateMutability": "payable",
      "type": "function",
      "payable": true
    }
  ],
  "bytecode": "0x60806040523480156200001157600080fd5b506040516200154738038062001547833981810160405281019062000037919062000263565b620000576200004b6200012d60201b60201c565b6200013560201b60201c565b60008060146101000a81548160ff021916908315150217905550600073ffffffffffffffffffffffffffffffffffffffff168173ffffffffffffffffffffffffffffffffffffffff1614158015620000db57503073ffffffffffffffffffffffffffffffffffffffff168173ffffffffffffffffffffffffffffffffffffffff1614155b620000e557600080fd5b80600160006101000a81548173ffffffffffffffffffffffffffffffffffffffff021916908373ffffffffffffffffffffffffffffffffffffffff1602179055505062000295565b600033905090565b60008060009054906101000a900473ffffffffffffffffffffffffffffffffffffffff169050816000806101000a81548173ffffffffffffffffffffffffffffffffffffffff021916908373ffffffffffffffffffffffffffffffffffffffff1602179055508173ffffffffffffffffffffffffffffffffffffffff168173ffffffffffffffffffffffffffffffffffffffff167f8be0079c531659141344cd1fd0a4f28419497f9722a3daafe3b4186f6b6457e060405160405180910390a35050565b600080fd5b600073ffffffffffffffffffffffffffffffffffffffff82169050919050565b60006200022b82620001fe565b9050919050565b6200023d816200021e565b81146200024957600080fd5b50565b6000815190506200025d8162000232565b92915050565b6000602082840312156200027c576200027b620001f9565b5b60006200028c848285016200024c565b91505092915050565b6112a280620002a56000396000f3fe6080604052600436106100705760003560e01c8063877fd0da1161004e578063877fd0da146100e25780638da5cb5b146100fe578063f2fde38b14610129578063fa6770b81461015257610070565b80635bf8633a146100755780635c975abb146100a0578063715018a6146100cb575b600080fd5b34801561008157600080fd5b5061008a61018f565b6040516100979190610af7565b60405180910390f35b3480156100ac57600080fd5b506100b56101b5565b6040516100c29190610b2d565b60405180910390f35b3480156100d757600080fd5b506100e06101cb565b005b6100fc60048036038101906100f79190610bf2565b610253565b005b34801561010a57600080fd5b5061011361068c565b6040516101209190610ca0565b60405180910390f35b34801561013557600080fd5b50610150600480360381019061014b9190610ce7565b6106b5565b005b34801561015e57600080fd5b5061017960048036038101906101749190610d14565b6107ac565b6040516101869190610d50565b60405180910390f35b600160009054906101000a900473ffffffffffffffffffffffffffffffffffffffff1681565b60008060149054906101000a900460ff16905090565b6101d36107ce565b73ffffffffffffffffffffffffffffffffffffffff166101f161068c565b73ffffffffffffffffffffffffffffffffffffffff1614610247576040517f08c379a000000000000000000000000000000000000000000000000000000000815260040161023e90610dc8565b60405180910390fd5b61025160006107d6565b565b834210610295576040517f08c379a000000000000000000000000000000000000000000000000000000000815260040161028c90610e34565b60405180910390fd5b60003390506000610539905060007f8b73c3c69bb8fe3d512ecc4cf759cc79239f7b179b0ffacaa9a75d522b39400f6040518060400160405280600881526020017f446573692d4e4654000000000000000000000000000000000000000000000000815250805190602001206040518060400160405280600581526020017f302e302e31000000000000000000000000000000000000000000000000000000815250805190602001208430604051602001610354959493929190610e63565b60405160208183030381529060405280519060200120905060007fe9d09b94aff627415a1c2e6cf102f22fb5de203942db65bfd22a6e00942ce2ee848b8b8b6040516020016103a7959493929190610eb6565b604051602081830303815290604052805190602001209050600082826040516020016103d4929190610f81565b60405160208183030381529060405280519060200120905060006001828a8a8a604051600081526020016040526040516104119493929190610fc7565b6020604051602081039080840390855afa158015610433573d6000803e3d6000fd5b5050506020604051035190503073ffffffffffffffffffffffffffffffffffffffff16638da5cb5b6040518163ffffffff1660e01b8152600401602060405180830381865afa15801561048a573d6000803e3d6000fd5b505050506040513d601f19601f820116820180604052508101906104ae9190611021565b73ffffffffffffffffffffffffffffffffffffffff168173ffffffffffffffffffffffffffffffffffffffff161461051b576040517f08c379a00000000000000000000000000000000000000000000000000000000081526004016105129061109a565b60405180910390fd5b600073ffffffffffffffffffffffffffffffffffffffff168173ffffffffffffffffffffffffffffffffffffffff160361055457600080fd5b505050506000600160009054906101000a900473ffffffffffffffffffffffffffffffffffffffff1673ffffffffffffffffffffffffffffffffffffffff16636352211e896040518263ffffffff1660e01b81526004016105b59190610d50565b602060405180830381865afa1580156105d2573d6000803e3d6000fd5b505050506040513d601f19601f820116820180604052508101906105f69190611021565b905061060381848a61089a565b600061060e8a6107ac565b905061061a82826109a2565b888273ffffffffffffffffffffffffffffffffffffffff168573ffffffffffffffffffffffffffffffffffffffff167f16dd16959a056953a63cf14bf427881e762e54f03d86b864efea8238dd3b822f8d6040516106789190610d50565b60405180910390a450505050505050505050565b60008060009054906101000a900473ffffffffffffffffffffffffffffffffffffffff16905090565b6106bd6107ce565b73ffffffffffffffffffffffffffffffffffffffff166106db61068c565b73ffffffffffffffffffffffffffffffffffffffff1614610731576040517f08c379a000000000000000000000000000000000000000000000000000000000815260040161072890610dc8565b60405180910390fd5b600073ffffffffffffffffffffffffffffffffffffffff168173ffffffffffffffffffffffffffffffffffffffff16036107a0576040517f08c379a00000000000000000000000000000000000000000000000000000000081526004016107979061112c565b60405180910390fd5b6107a9816107d6565b50565b600060646062836107bd919061117b565b6107c79190611204565b9050919050565b600033905090565b60008060009054906101000a900473ffffffffffffffffffffffffffffffffffffffff169050816000806101000a81548173ffffffffffffffffffffffffffffffffffffffff021916908373ffffffffffffffffffffffffffffffffffffffff1602179055508173ffffffffffffffffffffffffffffffffffffffff168173ffffffffffffffffffffffffffffffffffffffff167f8be0079c531659141344cd1fd0a4f28419497f9722a3daafe3b4186f6b6457e060405160405180910390a35050565b600073ffffffffffffffffffffffffffffffffffffffff168273ffffffffffffffffffffffffffffffffffffffff161415801561090357503073ffffffffffffffffffffffffffffffffffffffff168273ffffffffffffffffffffffffffffffffffffffff1614155b61090c57600080fd5b600160009054906101000a900473ffffffffffffffffffffffffffffffffffffffff1673ffffffffffffffffffffffffffffffffffffffff166342842e0e8484846040518463ffffffff1660e01b815260040161096b93929190611235565b600060405180830381600087803b15801561098557600080fd5b505af1158015610999573d6000803e3d6000fd5b50505050505050565b600073ffffffffffffffffffffffffffffffffffffffff168273ffffffffffffffffffffffffffffffffffffffff1614158015610a0b57503073ffffffffffffffffffffffffffffffffffffffff168273ffffffffffffffffffffffffffffffffffffffff1614155b610a1457600080fd5b600081118015610a245750478111155b610a2d57600080fd5b8173ffffffffffffffffffffffffffffffffffffffff166108fc829081150290604051600060405180830381858888f19350505050158015610a73573d6000803e3d6000fd5b505050565b600073ffffffffffffffffffffffffffffffffffffffff82169050919050565b6000819050919050565b6000610abd610ab8610ab384610a78565b610a98565b610a78565b9050919050565b6000610acf82610aa2565b9050919050565b6000610ae182610ac4565b9050919050565b610af181610ad6565b82525050565b6000602082019050610b0c6000830184610ae8565b92915050565b60008115159050919050565b610b2781610b12565b82525050565b6000602082019050610b426000830184610b1e565b92915050565b600080fd5b6000819050919050565b610b6081610b4d565b8114610b6b57600080fd5b50565b600081359050610b7d81610b57565b92915050565b600060ff82169050919050565b610b9981610b83565b8114610ba457600080fd5b50565b600081359050610bb681610b90565b92915050565b6000819050919050565b610bcf81610bbc565b8114610bda57600080fd5b50565b600081359050610bec81610bc6565b92915050565b60008060008060008060c08789031215610c0f57610c0e610b48565b5b6000610c1d89828a01610b6e565b9650506020610c2e89828a01610b6e565b9550506040610c3f89828a01610b6e565b9450506060610c5089828a01610ba7565b9350506080610c6189828a01610bdd565b92505060a0610c7289828a01610bdd565b9150509295509295509295565b6000610c8a82610a78565b9050919050565b610c9a81610c7f565b82525050565b6000602082019050610cb56000830184610c91565b92915050565b610cc481610c7f565b8114610ccf57600080fd5b50565b600081359050610ce181610cbb565b92915050565b600060208284031215610cfd57610cfc610b48565b5b6000610d0b84828501610cd2565b91505092915050565b600060208284031215610d2a57610d29610b48565b5b6000610d3884828501610b6e565b91505092915050565b610d4a81610b4d565b82525050565b6000602082019050610d656000830184610d41565b92915050565b600082825260208201905092915050565b7f4f776e61626c653a2063616c6c6572206973206e6f7420746865206f776e6572600082015250565b6000610db2602083610d6b565b9150610dbd82610d7c565b602082019050919050565b60006020820190508181036000830152610de181610da5565b9050919050565b7f5369676e6564205472616e73616374696f6e2045787069726564000000000000600082015250565b6000610e1e601a83610d6b565b9150610e2982610de8565b602082019050919050565b60006020820190508181036000830152610e4d81610e11565b9050919050565b610e5d81610bbc565b82525050565b600060a082019050610e786000830188610e54565b610e856020830187610e54565b610e926040830186610e54565b610e9f6060830185610d41565b610eac6080830184610c91565b9695505050505050565b600060a082019050610ecb6000830188610e54565b610ed86020830187610c91565b610ee56040830186610d41565b610ef26060830185610d41565b610eff6080830184610d41565b9695505050505050565b600081905092915050565b7f1901000000000000000000000000000000000000000000000000000000000000600082015250565b6000610f4a600283610f09565b9150610f5582610f14565b600282019050919050565b6000819050919050565b610f7b610f7682610bbc565b610f60565b82525050565b6000610f8c82610f3d565b9150610f988285610f6a565b602082019150610fa88284610f6a565b6020820191508190509392505050565b610fc181610b83565b82525050565b6000608082019050610fdc6000830187610e54565b610fe96020830186610fb8565b610ff66040830185610e54565b6110036060830184610e54565b95945050505050565b60008151905061101b81610cbb565b92915050565b60006020828403121561103757611036610b48565b5b60006110458482850161100c565b91505092915050565b7f496e76616c6964205369676e6174757265000000000000000000000000000000600082015250565b6000611084601183610d6b565b915061108f8261104e565b602082019050919050565b600060208201905081810360008301526110b381611077565b9050919050565b7f4f776e61626c653a206e6577206f776e657220697320746865207a65726f206160008201527f6464726573730000000000000000000000000000000000000000000000000000602082015250565b6000611116602683610d6b565b9150611121826110ba565b604082019050919050565b6000602082019050818103600083015261114581611109565b9050919050565b7f4e487b7100000000000000000000000000000000000000000000000000000000600052601160045260246000fd5b600061118682610b4d565b915061119183610b4d565b9250817fffffffffffffffffffffffffffffffffffffffffffffffffffffffffffffffff04831182151516156111ca576111c961114c565b5b828202905092915050565b7f4e487b7100000000000000000000000000000000000000000000000000000000600052601260045260246000fd5b600061120f82610b4d565b915061121a83610b4d565b92508261122a576112296111d5565b5b828204905092915050565b600060608201905061124a6000830186610c91565b6112576020830185610c91565b6112646040830184610d41565b94935050505056fea2646970667358221220310322eb9a77217729fc526e8f754e18ce85ee5310853a1894ade9e82826e05464736f6c634300080d0033",
  "immutableReferences": {},
  "source": "// SPDX-License-Identifier: UNLICENSED\r\npragma solidity ^0.8.0;\r\n\r\nimport \"@openzeppelin/contracts/token/ERC721/ERC721.sol\";\r\nimport \"@openzeppelin/contracts/access/Ownable.sol\";\r\nimport \"@openzeppelin/contracts/security/Pausable.sol\";\r\n\r\ncontract SellNFT is Ownable, Pausable {\r\n    // event Sent(address indexed payee, uint256 amount, uint256 balance);\r\n    // event Received(\r\n    //     address indexed payer,\r\n    //     uint256 indexed tokenId,\r\n    //     uint256 amount,\r\n    //     uint256 balance\r\n    // );\r\n    event Sold(\r\n        address indexed to,\r\n        address indexed from,\r\n        uint256 indexed tokenId,\r\n        uint256 amount\r\n    );\r\n\r\n    ERC721 public nftAddress;\r\n\r\n    constructor(address _nftAddress) {\r\n        require(_nftAddress != address(0) && _nftAddress != address(this));\r\n        nftAddress = ERC721(_nftAddress);\r\n    }\r\n\r\n    function _sendNft(\r\n        address from,\r\n        address to,\r\n        uint256 _tokenId\r\n    ) private {\r\n        require(to != address(0) && to != address(this));\r\n        nftAddress.safeTransferFrom(from, to, _tokenId);\r\n        // emit Received(sendTo, _tokenId, msg.value, address(this).balance);\r\n    }\r\n\r\n    function _sendPayment(address to, uint256 _amount) private {\r\n        require(to != address(0) && to != address(this));\r\n        require(_amount > 0 && _amount <= address(this).balance);\r\n        payable(to).transfer(_amount);\r\n        // emit Sent(_payee, _amount, address(this).balance);\r\n    }\r\n\r\n    function deductFees(uint256 amount)\r\n        public\r\n        pure\r\n        returns (uint256 amount_after_fees)\r\n    {\r\n        amount_after_fees = (amount * 98) / 100;\r\n    }\r\n\r\n    function sellNft(\r\n        uint256 _amount,\r\n        uint256 _tokenId,\r\n        uint256 _deadline,\r\n        uint8 v,\r\n        bytes32 r,\r\n        bytes32 s\r\n    ) public payable {\r\n        require(block.timestamp < _deadline, \"Signed Transaction Expired\");\r\n        address buyer = msg.sender;\r\n        uint256 chainId = 1337;\r\n\r\n        {\r\n            bytes32 eip712DomainHash = keccak256(\r\n                abi.encode(\r\n                    keccak256(\r\n                        \"EIP712Domain(string name,string version,uint256 chainId,address verifyingContract)\"\r\n                    ),\r\n                    keccak256(bytes(\"Desi-NFT\")),\r\n                    keccak256(bytes(\"0.0.1\")),\r\n                    chainId,\r\n                    address(this)\r\n                )\r\n            );\r\n\r\n            bytes32 hashStruct = keccak256(\r\n                abi.encode(\r\n                    keccak256(\r\n                        \"sellNft(address sender,uint256 amount,uint256 tokenId,uint256 deadline)\"\r\n                    ),\r\n                    buyer,\r\n                    _amount,\r\n                    _tokenId,\r\n                    _deadline\r\n                )\r\n            );\r\n\r\n            bytes32 hash = keccak256(\r\n                abi.encodePacked(\"\\x19\\x01\", eip712DomainHash, hashStruct)\r\n            );\r\n\r\n            address signer = ecrecover(hash, v, r, s);\r\n            require(signer == this.owner(), \"Invalid Signature\");\r\n            require(signer != address(0));\r\n        }\r\n\r\n        address tokenOwner = nftAddress.ownerOf(_tokenId);\r\n\r\n        _sendNft(tokenOwner, buyer, _tokenId);\r\n        uint256 amount_after_fees = deductFees(_amount);\r\n        _sendPayment(tokenOwner, amount_after_fees);\r\n\r\n        emit Sold(buyer, tokenOwner, _tokenId, _amount);\r\n    }\r\n}\r\n",
  "sourcePath": "E:\\Github\\nft-market\\truffle\\contracts\\transact.sol",
  "compiler": {
    "name": "solc",
    "version": "0.8.13+commit.abaa5c0e.Emscripten.clang"
  },
  "schemaVersion": "3.4.7",
  "updatedAt": "2022-05-08T16:29:24.610Z",
  "networkType": "ethereum",
  "devdoc": {
    "kind": "dev",
    "methods": {
      "owner()": {
        "details": "Returns the address of the current owner."
      },
      "paused()": {
        "details": "Returns true if the contract is paused, and false otherwise."
      },
      "renounceOwnership()": {
        "details": "Leaves the contract without owner. It will not be possible to call `onlyOwner` functions anymore. Can only be called by the current owner. NOTE: Renouncing ownership will leave the contract without an owner, thereby removing any functionality that is only available to the owner."
      },
      "transferOwnership(address)": {
        "details": "Transfers ownership of the contract to a new account (`newOwner`). Can only be called by the current owner."
      }
    },
    "version": 1
  },
  "userdoc": {
    "kind": "user",
    "methods": {},
    "version": 1
  }
}